:020000040020DA
:10000000681900208D0220001B4C2000194C200094
:10001000194C2000194C2000194C20000000000051
:10002000000000000000000000000000C15220009D
:10003000194C200000000000DF5220004D08200075
:10004000A54C2000AB4C2000B14C2000B74C200048
:1000500000000000994C20009F4C2000194C20000B
:10006000194C20000000000000000000000000000B
:100070000000000000000000194C200000000000FB
:100080000000000000000000194C2000194C200066
:10009000194C2000194C2000194C2000194C20004C
:1000A000194C2000194C2000194C2000194C20003C
:1000B000194C2000194C2000194C2000194C20002C
:1000C000194C2000194C2000194C2000194C20001C
:1000D000194C20000000000000000000000000009B
:1000E0000000000000000000000000000000000010
:1000F0000000000000000000351A2000451A200012
:1001000000000000000000000000000000000000EF
:1001100000000000000000000000000000000000DF
:1001200000000000000000000000000000000000CF
:1001300000000000000000000000000000000000BF
:1001400000000000000000000000000000000000AF
:10015000000000000000000000000000000000009F
:10016000000000000000000000000000000000008F
:10017000000000000000000000000000000000007F
:10018000000000000000000000000000000000006F
:10019000000000000000000000000000000000005F
:1001A000000000000000000000000000000000004F
:1001B000000000000000000000000000000000003F
:1001C000000000000000000000000000000000002F
:1001D000000000000000000000000000000000001F
:1001E000000000000000000000000000000000000F
:1001F00000000000000000000000000000000000FF
:1002000000000000000000000000000000000000EE
:1002100000000000000000000000000000000000DE
:1002200000000000000000000000000000000000CE
:1002300000000000000000000000000000000000BE
:1002400000000000000000000000000000000000AE
:10025000000000000000000000000000000000009E
:10026000000000000000000000000000000000008E
:10027000194C2000B118200005192000590E20004B
:10028000B11C2000FD082000194C2000FF22002492
:1002900008B5094B0948C3F8B420094A636E0949F7
:1002A000121A98470848094A2146236E121A98479D
:1002B00000F00EF8FEE700BF00200D4040000020D7
:1002C0002C01002008642000300100206111002072
:1002D00073B500F08BFC00F061FD00F0A1FC00F0B4
:1002E0007DFA01F0D3FC04F07FFD00F04FFD00F03B
:1002F0001DF9202004F094FC02F01EFB00F062FCCB
:10030000002000F085FB012000F082FB0020414925
:1003100000F042FC02F044FC62B6082004F080FCCD
:100320003D4804F0EDFC3D4804F0EAFC00F0F4F92F
:10033000002002F0DDFC01F015FB0021384802F03E
:1003400087FB02F027FA04F097FC00F0C5FD00F0EF
:10035000E1FD03F031F80821684601F0D9FC314D88
:10036000BDF8064030482C8001F008FD2F4E29785A
:100370002F4801F003FD69782E4801F0FFFCF56A73
:100380004AF6CD310220A84761BA89B20320A847B6
:100390001A210120A84708226946736B0B20984751
:1003A000254801F0EBFC254B186804F0A9FC244813
:1003B00001F0E4FC234B186804F0A2FC224801F091
:1003C000DDFC224B186804F09BFC0021204802F061
:1003D0003FFB204B01219B688120984702F088F861
:1003E00000F058FA01221C4B18601C4B1C481A7074
:1003F00004F0D3FC00F0ECFB102004F011FC00F042
:10040000EDFB02F0B1FAC0B20028F8D101F09CFB7C
:10041000F5E700BF592B20006E5C20008A5C2000AD
:1004200068000020EC0F0020A45C2000645720002E
:10043000C25C2000B95E2000C85C20003858200053
:10044000CF5C200068582000D65C20008458200033
:1004500098000020EC562000200200200010002010
:10046000C0582000F8B52D4D2E7828704640F20671
:1004700009D510F010042A4F25D000F00BFA294BB3
:10048000D8600123FB7016F0300F0AD02B78244C73
:1004900013F0300725D000F0FDF9224B186101233D
:1004A0002371B3060AD52B781D4E13F0200426D0F5
:1004B00000F0F0F91B4B5861012373712878BDE8F7
:1004C000F84000F007B9FB78002BDCD000F0E2F92F
:1004D000154A1449D368C968FC705B1A0344D36099
:1004E000D1E72379002BDCD000F0D4F90E4A0D4976
:1004F0001369096927715B1A03441361D1E77379A2
:10050000002BDBD000F0C6F9074A06495369496958
:1005100074715B1A03445361D0E700BFF40F0020ED
:1005200000100020200200205002002008B500F03A
:10053000C7F80022014B1A7008BD00BFF40F00205D
:10054000024B1B781843FFF78DBF00BFF40F00204C
:10055000024B1B7823EA0000FFF784BFF40F002052
:1005600018B1012804D000207047034B186A704767
:10057000024B1878704700BF00900D40F60F002026
:1005800010B5094A0020137801331370074B19780E
:1005900002F036FABDE8104005490023054A096813
:1005A000054802F02DB900BFF60F0020F50F00201E
:1005B00068010020810520004801002008B503469D
:1005C000812B08462DD0B3F5807F3ED0802B26D1DD
:1005D00002F0AAF91E4B032118701E4B0020D3F81D
:1005E000202422F00802C3F82024D3F8002422F0AB
:1005F0000802C3F80024D3F8042422F00802C3F848
:100600000424D3F8082442F00802C3F80824042282
:1006100000F0D2FB032200210F4800F053FB012021
:100620000AE00C4B0D49D3F8102430B142F0080217
:10063000C3F8102401230B6008BD22F00802C3F8A0
:1006400010240123C1F88030F6E7054B1960E6E776
:10065000F50F002000900D406506200000E100E04D
:100660006801002008B50F4804F0CCFBC8B1082190
:100670000C4804F0BBFB0C4B196849B100220B4B32
:100680001A700B4B1B6A43B90A4A0B4802F0B8F8C0
:10069000BDE80840094802F0FFBA074802F0BAF87E
:1006A000F6E708BD4001002068010020F60F002099
:1006B00000900D408105200048010020EC562000EC
:1006C000034AD2F8003443F03803C2F800347047CC
:1006D00000C00D40014BC3F8E000704700C00D4062
:1006E000044BDB69C3F3072013F4704F04BF1030D1
:1006F000C0B2704700300D40064B5869C00910F079
:10070000060F03BF00F00700C0F1020040034FF4E2
:100710000040704700300D402DE9F047002488B0BC
:10072000FFF7DEFF164B0646DF69236D9847E36C43
:10073000804698470446FFF7DFFF054600F0AAFA17
:10074000814600F0B3FA824600F060FAAD0A07F085
:100750000103A40AC7F34007CDE905A0039341466E
:10076000CDF8109002970195009406F00F03C6F3A0
:100770000712044801F002FB08B0BDE8F08700BF93
:1007800000300D40E45C20002DE9784800F082F84C
:1007900010490246D1E900BC6646584538BF0CF105
:1007A00001063346C1E900230B4ED6E90001B0EB48
:1007B0000B0461EB0C05A01845EB0301C6E9000131
:1007C00001F088FF18B1BDE8784801F009BFBDE825
:1007D000788800BF38010020300100204FF0E0236E
:1007E000E0210B4A5A610B4A82F8231000220721AC
:1007F0009A61196108498B6843F001038B60074BCC
:10080000DA6004221A6001225A601F229A6370473C
:100810008FD0030000ED00E000200D4000000340F9
:10082000034BD3E90023100A40EA0360704700BF7E
:1008300038010020044B9862DA6842F00102DA6065
:10084000DA68D207FCD470470000034038B500F0E6
:1008500021F80123094C0A4DA370A860FFF794FF0B
:10086000A3784BB100F016F8064AA96893685B1AA2
:10087000034493600023A37038BD00BF0010002024
:100880002002002050020020014B1868704700BF72
:100890006C010020054A106C516C936C1B0443EAF8
:1008A00001230343D06C43EA0060704700500D40C1
:1008B00010B504460E4A136DDB07FCD572B6FFF780
:1008C000E9FF231A062BD8BFC41D094B220EDA6498
:1008D000C4F307429A64C4F307225A64E2B21A646A
:1008E00062B64FF40032034B1C60034B1A6110BD1B
:1008F00000500D406C01002000E100E070B501F0F7
:10090000F1F8FFF7C7FF012300254FF400320C4C2C
:100910000C4EA3700C4BB0601D600C4BC3F89021C3
:10092000C3F8902002F0B8F8A37843B1FFF7B2FF04
:10093000074AB1689368A5705B1A0344936070BD61
:1009400000100020200200206C01002000E100E0E7
:1009500050020020064B9B691B075FBF054B98693F
:1009600080F00800C0F3C00048BF0020704700BFFF
:1009700000C0004000D000402DE9F0410546FFF7DF
:1009800089FF01232C221D4E1D4FB3701D4BB860F3
:1009900002FB05334FF6BF72DC68236C626413F010
:1009A00050021BD0DFF86080A369DB060DD5B37859
:1009B0004BB1FFF76FFF154AB96893685B1A0344A0
:1009C00093600023B370BDE8F08158F825301BB167
:1009D0002068C0B29847E7E72368E5E713F4D06FD3
:1009E000E5D04FF440732363FF236360E36AE26260
:1009F000E362236B43F001032363D8E70010002078
:100A000020020020FC56200070010020500200202F
:100A100001282DE9F74F804600F2AD802C25454393
:100A2000564F7C1994F92090B9F1000FC0F2A380C1
:100A300094F92260002EC0F29E80514801F014F912
:100A4000504B79599A6A94F921A00A439A62DA6A5A
:100A50006168E5680A43DA621A6BA168F0B20A437A
:100A60001A63002322690AEBC901C5F8C83F116067
:100A700094F82310227DCDE9000194F923B000F011
:100A8000A5F9DDE90001082200F096F90122310301
:100A90003D4E02FA0BFB88594FEA09394BEA000038
:100AA000885159F8061002FA0AFA4AEA010149F88F
:100AB00006105021A963A96B94F9240041F4D06178
:100AC000A963022169634FF440712963A169002879
:100AD0006962E169A9624FF07001E96216DB0023E7
:100AE00094F92510294C41EAC005C4F804510403C7
:100AF000A5598A402A43A251C9B21A46C0B200F091
:100B00005BF9234A136B43F4004313632C2303FB69
:100B1000087393F92640002C1ADB93F82790E5B26E
:100B200001224946284693F927A000F04FF90123F6
:100B30002403A25903FA0AF31343A3510822494696
:100B4000284600F039F9124A136B43F480431363CB
:100B50002C2000FB0877FA68136B43F00103136342
:100B6000012297F82830590903F01F0302FA03F312
:100B7000084A42F8213003B0BDE8F08FFC5620004F
:100B80005509200000200D4020940D4000400D40EC
:100B900000D0004000E100E001289CBF014B43F879
:100BA0002010704770010020012808D82C22044B27
:100BB00002FB0030C3689A699206FCD41960704742
:100BC000FC5620000022014B1A60704700500D4077
:100BD0000822014B1A60704700500D40A022024BC2
:100BE0001A6050221A60704700500D40014A024BB3
:100BF0009A6070470000200000ED00E0024B58684A
:100C0000C0F38150704700BF00200D4008B5FFF7CA
:100C1000F5FF024B53F8200008BD00BF54572000D9
:100C200010B51A4C0122D4F82034062123F04003D9
:100C3000C4F82034D4F80034032023F04003C4F86F
:100C4000003400F0B9F8D4F82034012223F08003F6
:100C5000C4F82034D4F80034072123F08003C4F80A
:100C60000034032000F0A8F84FF40032084B1A605B
:100C700002F57F0259681142FCD15A685201FCD436
:100C8000034A53685B01FCD510BD00BF00C00D4096
:100C900000200D40034B04485B6803F00703184134
:100CA000704700BF00200D400048E801034B044896
:100CB0005B68C3F302231841704700BF00200D405A
:100CC0000048E801024B02EBC10243F822007047E2
:100CD00078010020F8B507460D460024084E06EBC3
:100CE000411647FA04F3DB07E1B204D556F8243085
:100CF0000BB1284698470134082CF2D1F8BD00BF4B
:100D0000780100202DE9F84F054600F0EBFEFFF7D3
:100D1000C1FD0123174FDFF86080BB70DFF85CA0D6
:100D2000174BC8F808002E0356F8039056F80A40EF
:100D30004FEAC50B24FA0BF449EA04002946C0B275
:100D4000FFF7C8FFE4B20F4A5FFA89F304FA0BF425
:100D5000B35046F80A40BB7853B1FFF79BFD0A4AEF
:100D6000D8F8081093685B1A034493600023BB70A3
:100D7000BDE8F88F001000202002002018970D40D9
:100D800018940D401C940D40500200208022002138
:100D9000014803F0EFBE00BF78010020034B044A76
:100DA0001A60044B803A1A60704700BFF8010020B7
:100DB00080400D40FC010020034B01EBC0011B688B
:100DC00043F82120704700BFF8010020034B01EBDE
:100DD000C0011B6843F82120704700BFFC010020C0
:100DE0000E2870B506460DD1134B5C6B44F0020023
:100DF00058631248D0F8F45625F03F0343F001033E
:100E0000C0F8F4360E48836823F0FF031A431143F9
:100E10003143816003681B06FCD5C368006903F099
:100E2000FC0343EA00230E2E18B201BF034BC3F8A4
:100E3000F456014B5C6370BD000001440080084023
:100E400000700D40034BD3F80007B0FA80F0400962
:100E5000704700BF00B0084070B5FFF71BFD0123CD
:100E60004FF400420F4C104EA370104B104DB06069
:100E7000C3F89021C3F89020286850B9FFF70AFD05
:100E80000C4AB16893685B1A034493600023A37013
:100E900070BD01F0F5FD00232B60A378002BF7D087
:100EA000ECE700BF001000202002002000E100E07D
:100EB0000002002050020020064B9A6C42F0020211
:100EC0009A64DA6C42F00202DA641A6D42F00202AD
:100ED0001A65704700200D4007B50C4800F0C4FEAD
:100EE000FFF7EAFF0A4B5A6D42F002025A650022F0
:100EF0000192019A0F2A06DD5A6D22F002025A650C
:100F000003B05DF804FB019A0132F1E7450E2000C1
:100F100000200D40064B9A6C22F002029A64DA6CB3
:100F200022F00202DA641A6D22F002021A6570479A
:100F300000200D40044BD3F84C0600F02200A0F135
:100F4000200358425841704700800840024BD3F8B4
:100F50004C0600F0400070470080084008B50D4B7B
:100F600093F90020002A0CDBED210B4AC2F8381857
:100F7000C2F83818E321C2F838181A7862F07F02F4
:100F80001A70FFF787FC054BD8610120044BD8711C
:100F900008BD00BFFD0F0020008008402002002097
:100FA0000010002070B505460C46144ED6F84C369D
:100FB0009B07FBD4124B93F90030002B01DBFFF7AA
:100FC000CDFFEE23691EC6F83838C6F83838A31CA2
:100FD000C6F828382144022000F0DEFC0949013C13
:100FE00041EA0411022000F0E9FC022000F0F0FCCC
:100FF000022000F005FD002070BD00BF0080084009
:10100000FD0F002002C001C0054BD3F8002620B11F
:1010100042F00102C3F80026704722F00102F9E70E
:1010200000800840284B1870002841D0274A536898
:101030001B03FCD5264BD3F8042842F00202C3F868
:101040000428D3F8042842F00102C3F80428D3F896
:1010500004285007FBD5D3F8042822F00102C3F876
:1010600004281B4BD3F804285107FBD4D3F80428D9
:1010700042F00202C3F80428D3F8042842F0010227
:10108000C3F80428D3F804285207FBD5D3F88C26DC
:1010900022F00402C3F88C26D3F8342822F004028C
:1010A000C3F834284FF400520A4BC3F8902070471D
:1010B000074AD2F88C3643F00403C2F88C364FF45A
:1010C0000052044B1A617047FC0F002000200D40B5
:1010D0000080084000E100E00B280DD1082A0DD166
:1010E00061B1074B074A083111F8010D43F8040BB1
:1010F0009342F9D1002070470120704702207047C9
:10110000A8850840C885084070B5384A0546D2F819
:101110004C0610F0400009D0D2F82808040606D585
:10112000ED23C2F83838C2F83838002070BDC0B29C
:101130000428F5D902388842F2DCC4B2032C24D149
:10114000D2F828382B70D2F828386B70D2F82838AB
:10115000AB70264D264BD5F82818264E493949B292
:101160001970D5F828381806337026D589B20420AE
:1011700002F0F8F83178032001F07F0102F0F2F874
:101180001D4B1B78FBB12046D0E7291903200139FC
:1011900000F00AFC1949631E032041EA031100F024
:1011A0000DFC032000F014FC032000F029FC0320B8
:1011B00000F032FC0028FAD1CBE7ED23C5F838382F
:1011C000C5F83838B1E7D5F84C365A06DBD5D5F82E
:1011D0004C361B0603D50A4801F052FCD3E7ED2339
:1011E000C5F83838C5F83838CDE700BF008008406A
:1011F000FE0F0020FB0F0020FC0F002002C0010C9E
:101200005000002010B5144BD3F84C269107FBD4A6
:10121000D3F84C2652065EBFED22C3F83828C3F837
:101220003828D3F82C2612B1EF22C3F838280B4AFD
:101230000B4C137803F07F031370E37953B1FFF77E
:1012400029FB084A0849D369C9695B1A0344D36179
:101250000023E371012010BD00800840FD0F002035
:1012600000100020500200202002002070B5A0F1E4
:101270000B05EBB20F2B044614D80C4ED6F84836AB
:1012800013F03F0302D0FFF7BDFF012305EB8505F7
:101290000B35C6F83C560BB1FFF760FE044B60B24D
:1012A0001C7070BD4FF0FF30FBE700BF00800840AE
:1012B0002A01002010B50C46072865D8DFE800F0A9
:1012C000040F1A232C444A5E012903D1FFF746FE7E
:1012D00000203EE0002959D1FFF794FFF8E7A1F183
:1012E0000B030F2B52D8C8B2FFF7C0FF0130EFD16C
:1012F00003202EE0264BCAB2C1F30724C3F8C82549
:10130000C3F8CC45E4E7224BCAB2C1F30724C3F8C3
:10131000D025C3F8D445DBE731F0070336D101F01F
:101320000100FFF771FE1A4B11F0020FD3F82426CB
:10133000C1F3800014BF42F0200222F02002C3F863
:101340002426FFF76FFEC3E731F001001ED1114BD9
:10135000197010BD01F118031F2B17D80D230E4A69
:1013600052F833108C4206DC02EBC3031A79084BA7
:10137000C3F84026ACE7013BF2D2A9E7044BCCB25C
:101380004934C3F85846A3E70120E2E70220E0E72A
:10139000008008402B0100209C57200038B50C46E7
:1013A000002900F09180102800F29080DFE800F022
:1013B00009111D252B434C60667D818E8E86885DCC
:1013C0008A00434BD3F82C36003B18BF012323601F
:1013D0002BE005223E4BD3F83C3603F07F030B3B5A
:1013E00093FBF2F30B33DBB2F1E7394AD2F8CC15B9
:1013F000D2F8C83543EA0123E9E7354AD2F8D415D3
:10140000D2F8D035F6E70023314A0B60D2F8003627
:1014100003F001030B60D2F82426900644BF43F08A
:1014200002030B602B4B1B780BB900200BE00B6801
:1014300043F00403CBE70020274B08601B78002B08
:10144000F3D001230B6038BD214B2449D3F840264B
:101450000023D2B201EBC3000079904202D851F8C8
:101460003330B4E701330E2BF4D16FF01703AEE73E
:10147000174BD3F858365BB2493BA8E7144DD5F863
:10148000483699060FD1FFF769FD0123D5F8642688
:10149000D207FBD5D5F86056493D6DB20BB1FFF7C9
:1014A000B1FE2560C1E70023F0E70D4B93F9003052
:1014B0008DE70C4B1B7803F07F0388E70B2386E74F
:1014C0001A2384E7072382E70220BCE70120BAE75A
:1014D00000800840FC0F00202B0100209C572000BA
:1014E000FE0F0020FB0F002010B50B4CD4F848363F
:1014F00099060FD1FFF732FD0123D4F86426D207F5
:10150000FBD5D4F84C46C4F300140BB1FFF77AFEB8
:10151000204610BD0023F0E7008008402DE9F0418F
:10152000394B93F90030002B1BDBFFF7B3F904466E
:10153000FFF714FDC4F1FF2404F57F04F634FFF730
:10154000A9F9C442FBD40127304B1B785BB9304B5F
:10155000D3F84C4614F020040AD002242046BDE8FB
:10156000F0810027F0E7FFF7BFFF0028EFD1F4E795
:10157000284D294EEB7943B1FFF78CF9274AF169E1
:10158000D369EC715B1A0344D361FFF783F901233C
:10159000AB71E9234FF004081D4CB061C4F8383832
:1015A000D4F84C369A0704D408F1FF3818F0FF0835
:1015B0000AD1D4F84C369B070AD5154BD3F84C46C4
:1015C00014F00204FAD109E00620FFF733F9E7E747
:1015D000EE23C4F83838C4F838380124AB794BB15D
:1015E000FFF758F90D4AB16993695B1A0344936197
:1015F0000023AB71FFF74EF90123F061EB71002F6F
:10160000ACD0FFF7FFFDA9E7FD0F00202B01002064
:10161000008008400010002020020020500200201E
:101620000B282DE9F8430D460FD1082A7CD100295B
:101630007AD03E4B3E4A4D1E53F80419934205F8AA
:10164000011FF9D10020BDE8F8830C286AD1042AD3
:101650006AD1002968D0374BD3F8102822F007024E
:10166000C3F81028D3F8042842F00802C3F804286D
:10167000D3F81428D3F81818D3F81008D2B220F0F1
:101680007000C3F81008D3F82448D3F820080902E2
:1016900042EA006289B224040A4304F47F04D3F8C6
:1016A0001C7842EA0408D3F81028FFB222F007029F
:1016B00042F00102C3F81028D3F8042842F00802CF
:1016C000C3F80428D3F81448D3F81828D3F810180E
:1016D000E4B221F0700141F01001C3F81018D3F802
:1016E0002418D3F82008120292B244EA00640904D4
:1016F000144301F47F010C43D3F81C185FFA81F9FD
:10170000FFF7C8F8B8EB040467EB0907FF030646C8
:101710000023094AE00347EA544102F0FDFF361A6C
:101720002E608FE701208EE702208CE7C4850840F9
:10173000A4850840008008400048E8012DE9F041F8
:101740002C4F3E7816F0010652D101252A4B2B4C26
:10175000C3F8A850C3F8AC50C3F8B050F823C4F88D
:1017600058360923C4F8E83715230B22C4F8C836C5
:10177000234B4FF07F085A604023C4F82436D4F836
:10178000243643F02003C4F82436D523C4F8086671
:10179000C4F85086C4F840361A4B1878FFF766FD37
:1017A0004FF48042184B0220C4F894861A6100F06E
:1017B0001BF91649022000F0F7F8032000F014F995
:1017C0001249032000F0E8F8114B1878FFF72AFCC3
:1017D0003146104801F03CF93B782B433B70FFF752
:1017E00059F80D4BD86128460C4BDD71BDE8F081EE
:1017F0000020FBE7FD0F002000200D400080084086
:1018000000600D402A01002000E100E02888084027
:10181000FC0F0020500000202002002000100020BB
:1018200038B50388044653B340F20342934233D1A0
:101830001B4B1A7842BB822924D11B7873B901F063
:1018400043FD01F0D5FC8021FFF75EFC002805DD9B
:1018500080B201F08DFC134B1B699847124B1A782C
:1018600052060CD500221A70104BD3F84856FFF7D9
:10187000C9FCFFF763FFAB0601D0FFF76FFB40F237
:101880000343238001200AE01A78002AFAD0064A8E
:1018900012785006F6D5CEE700230380032038BD2A
:1018A000FC0F002084582000FD0F0020008008401D
:1018B00070B5FEF7EFFF01230C4C0D4EA3700D4BDE
:1018C000B0601B7813B90C4801F0DAF800250B4B17
:1018D000C3F83458A37843B1FEF7DCFF084AB16877
:1018E0009368A5705B1A0344936070BD00100020DC
:1018F00020020020FC0F0020500000200080084043
:101900005002002070B5FEF7C5FF012300250F4CE3
:101910000F4E104AB060A370D2F82C380E48042B3A
:101920001FBF0E490B7843F040030B70C2F82C58D0
:1019300001F0A6F8A37843B1FEF7ACFF084AB168FE
:101940009368A5705B1A0344936070BD001000207B
:10195000200200200080084050000020FD0F0020E1
:101960005002002010B5094C40220021204603F00F
:1019700001F90122064B5A604FF480429C60054BEE
:101980005A604FF400425A6010BD00BF00000020B2
:1019900000F00F4000E100E003289EBF014B000172
:1019A000195070470000002003289EBF024B03EB34
:1019B00000104160704700BF0000002003289EBF58
:1019C000024B03EB00108160704700BF0000002055
:1019D000032806D80123034A03FA00F0916A08435A
:1019E0009062704700F00F40032806D80123034A95
:1019F00003FA00F0116A08431062704700F00F40CC
:101A0000032806D80123034A03FA00F0516908436A
:101A10005061704700F00F4003289FBF044B03EB59
:101A20000010806800F0070088BF0020704700BFEA
:101A3000000000204FF0FF32014BC3F8042570472F
:101A400000F00F400122014BDA64704700F00F40B4
:101A5000084B5A68D102FCD41A6822F480321A600A
:101A60005A68D203FCD41968034A0A4042F400328F
:101A70001A60704700200D40F8F8FDFF70B5154C56
:101A8000FEF708FF2378144D3BB1144A2968136808
:101A90005B1A03441360002323700123104E686017
:101AA00031680220637000F057FD30BF022000F063
:101AB00037FD3060FEF7EEFE63783BB1074A696898
:101AC00053685B1A0344536000236370012328604A
:101AD000237070BD00100020200200205002002062
:101AE0000402002070B5134CA36D990720D06368E1
:101AF0005A01FCD463685B01FCD5002503F0BDF8F6
:101B0000FFF7A6FF0220A56500F00AFD0A4B18604A
:101B1000FEF7C0FE094A0A49537833B1094C4E68B2
:101B2000636855709B1B0344636001230860137056
:101B300070BD00BF00200D400402002000100020F6
:101B40002002002050020020F8B53E4BD3F8484652
:101B500014F03F0431D13C4D55F8043B23B1984774
:101B600058B30134052CF7D1384E33782BB3FEF738
:101B70008BFE0446FEF78EFE201A09281DD9E4B11B
:101B8000334A344B11680B4043F4807343F0010334
:101B900013605368D902FCD413682D4D43F480338D
:101BA00013606B68DB03FCD5FEF774FE241A092C66
:101BB00007D8BDE8F840FFF74BBFBDE8F840FFF796
:101BC0005DBF632C2DD93378022B2AD1224EAB6511
:101BD000224C0220316800F0BFFCFEF75BFE237848
:101BE0001F4D3BB11F4A296813685B1A03441360F9
:101BF0000023237001236860637000F0F7FE90B14A
:101C00000027FFF725FF124B02209F6500F088FC9C
:101C10003060FEF73FFE63785BB9012328602370D4
:101C2000F8BD0123D2E7FEF72FFE0028E8D030BF31
:101C3000F6E70C4A6968536867705B1A034453609F
:101C4000EBE700BF0080084008020020FF0F0020E3
:101C500000200D40FEFEFDFF0402002000100020C9
:101C60002002002050020020074A10B5002314462D
:101C700052F8041B814202D011B944F8230010BD70
:101C80000133052BF4D1FAE7080200200022054BAE
:101C900005499A650B6943F004030B61034B1A7005
:101CA000704700BF00200D4000ED00E0FF0F002056
:101CB00070B5FEF7EFFD01234FF480320F4C104E4C
:101CC000A370104B104DB060C3F89021C3F8902062
:101CD000286850B9FEF7DEFD0C4AB16893685B1ABC
:101CE000034493600023A37070BD00F0C9FE00237D
:101CF0002B60A378002BF7D0ECE700BF001000208A
:101D00002002002000E100E01C0200205002002020
:101D10004FF4201270B592F82B40431E54B101F5D8
:101D20002011154A273191421AD011F8010903F800
:101D3000010FF8E792F82A40122CF0D192F82920EE
:101D40004B2AECD14C0804F520120B4D2732AA4245
:101D500007D1002301F5201120442731A34205DBE0
:101D600070BD12F8016903F8016FF0E7CA1A127822
:101D7000013300F8012BF1E7270028000FB407B565
:101D800004AA52F8041B0448019200F021F803B0A1
:101D90005DF804EB04B070476000002070B50546A4
:101DA0000C460A4E102C07D874B122462B6868687E
:101DB0000649BDE870401847102231462B68686814
:101DC000984710B9103CEDE7204670BD045E200036
:101DD0002DE9F04F8046154600278DB00491049BF5
:101DE0001B78002B00F07983049B1A781C46013382
:101DF000002A00F06183252AF7D1049B9C4205D07C
:101E00005DE323783744002B00F067836278631C1E
:101E1000002A00F062830024184610F8012B1946AE
:101E20002B2A15D009D8202A15D0232A16D0A2F1A2
:101E30003106082E40D8002219E02D2A04D0302A7D
:101E4000F5D144F0100401E044F001040346E3E757
:101E500044F00604FAE744F00204F7E744F008040B
:101E6000F4E70A21019A01FB0299A9F1300219460F
:101E700013F8019B0192A9F13002092AF1D90B78DC
:101E80002E2B36D14A784B1CA2F13000092828D8D5
:101E90004FF0000B1A781946A2F13000092803F11F
:101EA000010318D90B786C2B6BD14B786C2B23D199
:101EB00044F08004023122E02A2A09D12B6801462D
:101EC000002B019305F10405B8BF44F00104D6E7E7
:101ED00000230193D3E70A2101FB0B2BABF1300B5D
:101EE000D8E72A2A04D1D5F800B002310435D9E761
:101EF00019464FF0FF3BD5E7013144F060040B7801
:101F0000782B0CD8572B48D8472B08D8402B00F2F9
:101F10008D80002B00F0E182252B00F0D0804B1C3F
:101F2000049304F4E063B3F5A06F00F0A28200F222
:101F3000C980B3F5407F00F06882B3F5806F00F090
:101F40002F82B3F5807F7FF44AAFBBF1000FACBFA7
:101F500024F010044FF0010B14F4005904F0E003D6
:101F600000F07A81402B00F0728100F2C280002BD9
:101F700000F07081202B00F0CB800026B2460023B9
:101F8000D3E0682BBBD14B78682B02D144F02004FE
:101F900090E7013144F04004B1E7583B202BBED814
:101FA00001A252F823F000BF712020001F1F200063
:101FB0001F1F20001F1F20001F1F20001F1F2000A9
:101FC0001F1F20001F1F20001F1F20009B2020001C
:101FD0001F1F2000A7202000592020008320200060
:101FE000772020008F2020001F1F20005920200074
:101FF0001F1F20001F1F20001F1F20001F1F200069
:10200000B920200065202000B32020001F1F2000E1
:102010001F1F2000AD2020001F1F20005F20200078
:102020001F1F20001F1F20006B202000413B062B9C
:102030003FF675AF01A252F823F000BFA1202000A7
:102040001F1F20001F1F20001F1F200089202000AD
:102050007D2020009520200044F424545FE744F4C0
:1020600010645CE744F4885459E744F4C85456E7D4
:1020700044F4B24453E744F4007450E744F4844415
:102080004DE744F402444AE744F4424447E744F449
:10209000813444E744F4A13441E744F4C1343EE7D9
:1020A00044F4E1343BE744F4A06438E744F480644A
:1020B00035E744F4407432E744F4E0642FE744F435
:1020C000C0642CE7B3F5C06F07D0B3F5E06F7FF4C1
:1020D00086AE2B6804351F6081E60122D8F80030F7
:1020E000A649D8F804009847002840F0F481013749
:1020F00075E6602B00F0AE80802B7FF43EAFEA1DCA
:1021000022F007021546D2F804A055F8086B04E047
:1021100095F9006004354FEAE67ABAF1000FBFF690
:102120002EAF012376426AEB4A0A029304F4C053AD
:10213000B3F5805F00F0E480B3F5C05F00F0E680A7
:10214000B3F5006F00F0C6800DF12E03009300235D
:102150000393039B41F608029B4588BFABEB030B3F
:1021600041F2080304EA020198BF4FF0000B9942C4
:1021700004D1BBF1010F38BF4FF0010B039B91421B
:102180005B4440F0DF8056EA0A0200F0DB807C49C5
:102190007C4A14F4804F4FF0020614BF8A469246E0
:1021A000B9F1000F0DD0029A002A40F0CE8004F061
:1021B0000602022A00F0CD80062A734A04BF0126D7
:1021C000924606EB0309019B4B4594BF4FF0000973
:1021D000A3EB090914F00103019304D1E20640F1D5
:1021E000BC80CB4499464EB132465146D8F80030B7
:1021F000D8F804009847002840F06D815C46039BA6
:10220000DFF888A11F44102CD8E9003000F2AD801F
:102210002CB122465D499847002840F05C81D8F8EF
:102220000030039A0099D8F80400374498470028F2
:1022300040F05181019B5F44002B00F0E080494653
:102240004046FFF7ABFD002800F0D98043E1B5F927
:1022500000605FE72E685DE7402B1BD007D8DBB13D
:10226000202B11D04E46CA46CDF808905EE7602B71
:1022700012D0802BF6D1EA1D22F007021546D2F8C3
:1022800004A055F8086B02E02E78CA460435CDF854
:1022900008904BE72E88F8E72E68F6E70398059933
:1022A0000A22002302F038FA009B303203F8012D95
:1022B0000398059900930A22002302F02DFA039057
:1022C0000591039B059A1343E8D1009A0DF12E0363
:1022D0009B1A3DE70DF12E030396CDF814A0009351
:1022E000EFE7009803F00701303100F8011DDB082B
:1022F00043EA42730090D20853EA0201F1D1E4E7C5
:102300000DF12E01334652460091F5E7204B14F4AF
:10231000804F2049524608BF194633460DF12E0022
:10232000009053EA0200D0D003F00F00DDF800C0A7
:10233000085C1B090CF8010D43EA0273CDF800C0DC
:102340001209EEE70026B2462AE70126DFF848A088
:1023500037E70126DFF844A033E749464046FFF758
:102360001DFD00283FF43FAFB5E0102251469847CD
:10237000002840F0B080103C45E700BF025E20001E
:10238000F15D2000F45D2000F95D2000145E200066
:10239000E05D2000CF5D2000F75D2000D45C2000D0
:1023A0002E6804356EB333469A469AF800200133FE
:1023B000002AF9D1AAEB060ABBF1000F02DBDA45CD
:1023C00028BFDA46019B534594BF4FF00009A3EBA9
:1023D0000A0914F0010405D149464046FFF7DEFC26
:1023E000002878D152463146D8F80030D8F8040099
:1023F000984700286FD15744002C7FF420AF4F44FA
:10240000EDE44FF0060A374ED6E7374B14F4804F11
:10241000364808BF18460DF12B0300229A4629685A
:10242000043551EA02061AD1BAEB030A04BF30227E
:1024300003F8012C4FF0780208BF03F1FF3303F8D3
:10244000012C4FF0300208BF4FF0010A03F8022CB4
:102450002322DE1E03F8032C0AF1030AB2E701F07F
:102460000F06865D090941EA027103F8016D120940
:10247000D7E7DDF804902B68B9F1010F38BF4FF0B2
:10248000010914F0010405F104058DF8183009F173
:10249000FF3605D131464046FFF780FCD8B93744B6
:1024A0000122D8F80030D8F8040006A9984790B95E
:1024B000002CA4D03146C3E6049B9C420DD0049B63
:1024C0000499E61A3246D8F80030D8F80400984744
:1024D00000283FF496AC4FF0FF3738460DB0BDE80A
:1024E000F08F00BFFB5D2000E05D2000CF5D20008D
:1024F00010B5302400212246064802F03BFB22465C
:102500000021054802F036FB0022044B1A605A6095
:102510009A6010BD20020020500200200010002010
:1025200038B50A4B04461B5C094D63B1FEF7B2F99E
:10253000084A55F8243052F8241042F824005B1A57
:10254000034445F8243055F8240038BD001000201D
:102550005002002020020020014B43F82010704759
:1025600050020020F8B500260A4F0B4D0B4C17F80F
:10257000013B3BB1FEF78EF92B68226820609B1A65
:1025800003442B6001360C2E05F1040504F104040C
:10259000EDD1F8BD001000205002002020020020E4
:1025A00010B50D4C236813B90C4A136010BDFEF72B
:1025B00037F92268D2E900310B441B1A92681AB924
:1025C0001844064B1860F1E7D2E900142144091AB7
:1025D0008B4228BF0B46F1E78402002080020020D6
:1025E000014800F04DBA00BF680000202DE9F0411D
:1025F0000388054653B1592B46D1872921D10020A4
:1026000023490B6863B918B10B6001E0204A1360DD
:10261000592301202B80BDE8F08101203346F1E7EA
:10262000D3E902649442F8D000B10B6019460B461E
:1026300089680029ECD0C8689042F8D1896899600F
:10264000F4E78229E4D14FF00008114F00263C68DE
:10265000002CDDD0204602F0D5FB90B12246882127
:10266000E06800F0CDF950B9A368E0602EB1B36026
:10267000C4F80880FFF794FFE8E73B60F8E7FFF74E
:10268000AFFF2646A468E3E7002303800320C2E7E8
:102690008402002010B50446FFF7A2FFE3680B4A4E
:1026A0000BB1136833B90A4B1B68E36013681460FD
:1026B000A36004E0A34206D1054A1268DA60BDE8CF
:1026C0001040FFF76DBF9B68ECE700BF840200205D
:1026D0000C040020024B1868003818BF0120704716
:1026E0008402002010B50B4A04461368834208D1C7
:1026F00083681360FFF754FF0023C4E9023310BD61
:102700001346002BF8D09A68A242F9D1A2689A60C9
:10271000F0E700BF84020020F8B50388054616469E
:10272000CBB14A2B2BD188291FD1174802F07BFB54
:102730000446C4B1231D9E421FD12146124802F017
:102740007CFB124E636937683360A3690BB1E069A3
:102750009847376007E00C4802F065FB044634B93F
:1027600001220B4B1A704A232B8001200AE0A1683A
:10277000201D02F01CFB2468F1E72468D9E7002340
:1027800003800320F8BD00BF880200200C04002055
:102790000C10002010B50024054B06481C7002F0F8
:1027A0003FFB2146BDE81040034800F051B900BF8F
:1027B0000C100020880200207800002070B504462C
:1027C000E3610B4B049D1B78C4E905526BB1094DC5
:1027D000094B2E68201D2B6002F0E9FA2E6021467D
:1027E000BDE87040054802F03BBBA160F7E700BFC1
:1027F0000C1000200C04002078000020880200202B
:1028000013B5034C24680094FFF7D8FF02B010BD45
:102810000C04002010B5084B04461B7843B104306B
:10282000FFF760FF2146BDE81040044802F005BBF9
:10283000C0E90333F6E700BF0C1000208802002037
:1028400038B5836804460D469BB10A4804600220EF
:10285000A07304F10C0098470238012801D9832D98
:1028600005D121462046BDE8384000F005B80123D7
:10287000A37338BD0C0400202DE9F8431C4F044617
:102880003D6888462B46A34204D00BB9BDE8F883C7
:102890001B68F8E7002CF9D0164EA37BD6F8009001
:1028A00063B10023A3738DB9A3683BB1444505D040
:1028B0002A468321346004F10C0098473B68A34208
:1028C0000ED123683B60C6F80090DFE7A54204D034
:1028D00022468721284602F081FA2D68E3E7134655
:1028E000002BF0D01A68A242F9D122681A60EAE7F8
:1028F000100400200C040020002238B50125084BEC
:102900001A70084B1C6804B938BDE37B2BB1002258
:1029100082212046E581FFF793FF2468F3E700BF9B
:102920001010002010040020024B1878421C1A706E
:10293000704700BF0E1000208A22064B1A70002339
:10294000054A1370054A1370054A1360054A13605F
:10295000704700BF0E1000200D1000200F10002047
:10296000100400200C0400202DE9F0411A4E3378A9
:102970000BB1FFF7C1FF194D2C7894B10C22184907
:10298000184F0B78013C5A430133B81803F01F036A
:10299000BF5C0B702C70D0E9018090B9124B1C68A1
:1029A00024B9337828781844BDE8F08133780BB126
:1029B000FFF7A2FF20464246394602F00FFA24688C
:1029C000EEE7812F08BF01234246394608BF8373D3
:1029D00002F004FAE5E700BF101000200F100020FD
:1029E0000D1000208C02002010040020024A034B2E
:1029F00010781B78184470470F100020101000202A
:102A0000F0B50B4D2C78202C0FD00C26094B0A4F1B
:102A10001B78234403F01F037343FE18C6E901200B
:102A200000200134F9542C70F0BD0120FCE700BFF8
:102A30000F1000200D1000208C02002038B5034C30
:102A4000256802F0CBF9256038BD00BF0C040020DA
:102A500010B40A4609490C68234683420CD04BB98E
:102A600050B104600860012110BC81738381812111
:102A7000FFF7E4BF1B68F0E710BC704710040020AC
:102A800038B1837B013B012B9FBF0123014AC373F4
:102A9000137070471010002010B5084C206858B112
:102AA00000232360D0E901319847236823B1BDE8B2
:102AB00010401868FDF7FCBE10BD00BF14040020D4
:102AC00070B505880446672D09D0792D2FD0002DCB
:102AD00033D1FFF729FF1B4B18701B4B1D601B4E9A
:102AE000194D08E00A282B680ED07E2B03DC5A1CF7
:102AF0002A60174AD054304602F032FA431CF1D112
:102B00006723238001201BE05A1C2A600025104AFD
:102B10002846D5540B4B1978FFF772FF0D4B2A4608
:102B200085211868FFF76CFF18B97923E9E7852933
:102B3000E8D10022044B1A60D1E700230380032070
:102B400070BD00BF12110020180400201C040020DA
:102B5000111000200C0400200D28014610B516D0DD
:102B60000C4C237853B90C4802F0E7F908B901235B
:102B700023700A48FFF784FF012010BD0A28F8D10E
:102B8000054802F0DAF90028F3D00023F0E700202E
:102B9000F3E700BF911000201C04002088000020F3
:102BA00008B505490548802202F0C0F9BDE8084093
:102BB00000210348FFF74CBF921000201C040020A6
:102BC000880000202DE9F04105880446772D20D0AB
:102BD0007E2D3DD0002D4ED1FFF7A6FE284E294B6D
:102BE000294FDFF8A88018703560336857F8232024
:102BF0002AB9274A13707723238001203EE008F882
:102C00000350936800218020984733680133336074
:102C1000EBE700231F4A1360194A1360184B1C4A44
:102C20001B6812789A4204DC1A4B1B68002BF0D107
:102C3000E1E7164AD256002A19DA134A002052F860
:102C40002320104B1978FFF7DBFE28B97E23D3E74A
:102C50000C4B1B788B42D0D1094B0C491A688B5C0A
:102C600003F07F038B540B4A136801331360044A4B
:102C700013680133D1E7002303800320BDE8F0810E
:102C8000280400201411002040000020F70F00202D
:102C9000131100202404002010B40A4B0A4A1978AA
:102CA00000238B4203DA52F8044BA04208D10749B3
:102CB0000748CA5C62F07F02CA5410BCFFF7E0BE4E
:102CC0000133EEE71311002040000020F70F002031
:102CD00098000020054B1A6842F004021A605869F7
:102CE0009B6940EA032080B2704700BF00700D402E
:102CF000184A136823F00C0313600122164BC3F823
:102D0000A820D3F8A820012AFBD10822134BC3F82E
:102D10002426E322C3F83828D3F86426D207FBD54B
:102D20000E4810220023D0F89C16013A01F0010150
:102D300043EA01034FEA43039BB2F4D1002BF0D0E6
:102D4000044A190A03F0FE0351615361EF23C0F8EE
:102D50003838704700700D4000200D40008008405A
:102D60000088064B40BA80B28840995CC2F10802E4
:102D700001EA20201041C0B2704700BF555E20001C
:102D8000F8B506460A480D46174602F04CF80446C8
:102D900030B93A4629463046BDE8F84002F07CBAE0
:102DA000A3680BB128469847204602F074F8EEE776
:102DB0002C04002038B500F0EFF80546094802F071
:102DC00032F8044628B95DB12846BDE8384002F023
:102DD0005EBA636803B19847204602F05CF8F0E7FA
:102DE00038BD00BF2C04002010B5044600F0E2F806
:102DF00038B100F0D9F9034B034821469B68984746
:102E0000012010BDB0582000812D200070B50B4C62
:102E10000023616E0A4A04F13800FFF7F1FCFFF766
:102E200059FF656E0023B0FBF5F1064A01FB150161
:102E300004F11800BDE87040FFF7E2BC3004002048
:102E4000492E2000612E2000044B5A6E196E52004C
:102E5000914294BF59665A66FFF7D8BF30040020EC
:102E600010B500F031FA00F0C3F9002303800446E6
:102E700000F06EF82288930008B1017B51B902334B
:102E800098B200F075F9238873B1BDE81040074887
:102E900000F044B8818823445980C1880132998068
:102EA000228001F0F8FFE5E710BD00BF30040020EC
:102EB0009DF80030012B04D1024B9A6D5A66FFF742
:102EC000A5BF704730040020F8B50F4616461D46D2
:102ED000064C0146064A204600F00EF8C4E9167674
:102EE00025660448BDE8F84000F02CB83004002006
:102EF00044582000B12E200070B505460C461646F9
:102F0000044A00F08BF820466E610349BDE870402A
:102F100002F0AFB94C582000635E200010B50446A3
:102F200004491A2000F02CFA2046BDE8104002F0B7
:102F3000ACB900BFEC0F0020014801F071BF00BF29
:102F40009C040020014B1860704700BFA0040020C3
:102F5000014801F068BF00BF9C0400202DE9F0414A
:102F600005460C480C46164601F05DFF08B9BDE861
:102F7000F0818388A34209D18768002FF7D03346B8
:102F800022462946BC46BDE8F041604701F083FF78
:102F9000ECE700BF9C040020054B10B51B68984768
:102FA000044618B18188012000F0DCF9204610BDEC
:102FB0002C58200038B5064B05465B6898470446F8
:102FC000A988012000F0CEF9201E18BF012038BDCD
:102FD0002C582000014B9B68184700BF2C5820003C
:102FE000014801F01DBF00BFA404002081800146FC
:102FF000014801F035BF00BFA404002010B504460D
:10300000054801F010FF00B910BD8388A342FBD032
:1030100001F041FFF7E700BFA404002070B50546AA
:103020000C461646FFF7E2FF20462E610249BDE836
:10303000704002F01EB900BF675E200070B5044604
:103040001B200D4600F0A8F9064902F063F938B1DB
:10305000A3691B6823B129462046BDE87040184784
:1030600070BD00BFEC0F002070B505460C4616463B
:10307000044AFFF741FF2046AE610349BDE87040B6
:1030800002F0F7B854582000695E200008B50448E3
:1030900001F004FFBDE80840024801F0FFBE00BF98
:1030A000B4000020A800002038B50E4801F006FF4B
:1030B000054650B10C4801F001FF0446286030B9C4
:1030C0002946084801F00EFF2546284638BD00F085
:1030D00097F804F1B601A4F8800004F1820000F032
:1030E00019F9F2E7A8000020B400002010B501464D
:1030F0000446074801F00CFF48B12168054801F07B
:10310000F1FE2146BDE81040014801F0EBBE10BDC4
:10311000A8000020B400002010B50146044609486C
:1031200001F0F6FE68B12468B4F88010204600F083
:10313000DBF804F1B60104F18200BDE8104000F0B4
:10314000FDB810BDA800002010B507490B888342C8
:1031500008DB064C80B222880244181A088001203D
:10316000228010BD0020FCE7AC0F0020AE0F002035
:10317000014B1880704700BFAC0F0020004870471B
:10318000C8040020014B1888704700BFAC0F002016
:10319000034A044B10781B881844C0B2704700BF24
:1031A00025110020AE0F00202DE9F0410C4E338890
:1031B00073B100240B4B0C4FB3F800800B4B1D7800
:1031C0003D4421B2414504F1010403DB0023338077
:1031D000BDE8F081FFF7DCFF3844435C6B54F0E757
:1031E000AE0F0020AC0F0020C804002025110020E5
:1031F00008B5FFF7CDFF014B184408BDC8040020F7
:10320000F8B50C4B04461E780B4B1F88F519802D22
:103210000DDC3246094901F037FCFFF7E9FF344481
:1032200001463A46204601F02FFC2846F8BD00250D
:10323000FBE700BF25110020AC0F0020C8040020D0
:1032400008B5FFF7A5FF024B1B88184480B208BDE4
:10325000AC0F002010B50146FFF7F2FF4318802B9A
:1032600012DC431E094A1BB21A44481C002B05DA23
:10327000074B187801440120197010BD12F801495C
:10328000013B14541BB2F1E70020F6E7C80400200C
:103290002511002070B534220021084801F06AFC95
:1032A0000024074D074E28463146013402F02FF81E
:1032B000042C05F10205F6D170BD00BFB80F002047
:1032C000B00F0020C85820000023044A1380044A8D
:1032D0001380044A1370FFF7DDBF00BFAE0F00205C
:1032E000AC0F00202511002038B50C460546FFF72D
:1032F000EBFF802C28BF802429462246034801F09A
:10330000C3FB034B20461C8038BD00BFC80400200F
:10331000AC0F002010B5074B03F1340253F8044BF7
:10332000934240F8044BF9D1034A13680B60536889
:103330004B6010BDB80F0020B00F002010B5074B38
:1033400000F1340250F8044B904243F8044BF9D199
:103350000B68034A13604B68536010BDB80F002020
:10336000B00F0020024B23F810100120704700BF5F
:10337000B80F0020014B33F810007047B80F002041
:1033800008B5044B1A3803EB400001F0C0FF0120E0
:1033900008BD00BFB00F0020024B1A3803EB4000FD
:1033A000704700BFB00F00200149024801F0B2BFD2
:1033B000C8582000B20F0020084B10B51B68984772
:1033C000074B5B689847074B5B689847064B5B6801
:1033D0009847BDE81040054B5B68184764572000CC
:1033E00084582000B0582000685820003858200029
:1033F000F8B5FDF715FA114D074600242E461A20A0
:10340000FFF7CAFF294601F085FF80B10A20FFF7C8
:10341000B1FF0C2303FB0464237A83420CD1606860
:10342000381AB0F5206F8CBF00200120F8BD0134A0
:10343000102C05F10C05E2D10020F7E7480500202B
:1034400070B5194D00242E461A20FFF7A5FF294616
:1034500001F060FF013418B9102C05F10C05F3D10F
:103460000C23621E03FB0464A4F10C057AB90A2044
:10347000FFF780FF3072FDF7D3F970601A20FFF775
:103480008BFFBDE870400146074801F040BF2B4666
:1034900054F8180C54F8141C013A03C354F8100CD7
:1034A0002C461860E0E700BF48050020014B188853
:1034B000704700BF240100202DE9F0410129064694
:1034C0000F46144686B003DC002006B0BDE8F0814C
:1034D00003A902F05FF80B4603CB1B88206123830E
:1034E0009DF811306161002B45D0B51C02AA01A9DD
:1034F00003A801F017FF9DF81380B8F1000F4DD01D
:10350000029B2BB16A7815F8023B03EB02239BB2B6
:10351000B8F1020FA38332D12046314901F0F7FE02
:103520006B78237015F8023B63709DF81580B8F135
:10353000000F4DD0019B002B37D06A7815F8023B65
:1035400003EB0223029A9BB2E38302B9A383B8F18F
:10355000020F2DD1224904F1080001F0D8FE6B784A
:10356000237215F8023B6372A81B3B1A8742C4E919
:103570000E53A9DBA9E7B378F51CA376B6E7B8F13B
:10358000030FD2D105F108021346611E13F8010D95
:103590009D4201F8010FF9D11546C6E720461049B2
:1035A00001F0B5FEA4F81C80BFE7A38BE383CEE750
:1035B000B8F1030FD8D105F10802134604F1080150
:1035C00013F8010DAB4201F8010BF9D11546CBE719
:1035D000034904F1080001F09AFEA4F81E80C3E735
:1035E000C858200030B591B00546FFF75FFF4FF691
:1035F000FF73984204D14FF0FF34204611B030BD24
:1036000040220021684601F0B5FA404B1A782AB9E9
:1036100001221A70FFF75EFB3D4B18701420FFF774
:10362000A9FE8DF810001320FFF7A4FE8DF81200FC
:10363000FFF7BAFE0446002848D000238DF8133067
:103640008DF81530002301248DF814308DF81840C2
:103650004DB10A20FFF78EFE00283FD00A20FFF769
:1036600089FE8DF81A0002248DF81940FFF71EFF1D
:10367000ADF81C00FFF798FE00283CD04FF6FF7312
:103680008DF81740ADF80030FFF710FFADF81E00C1
:103690001A20FFF781FE014602A801F038FEFFF76D
:1036A000A7FD0E90FFF76EFD0F90684601F0E4FE57
:1036B0000446002DA1D0FFF7CDFD00289BD0FFF7D9
:1036C0005DFD0146684601F01FFF96E70B20FFF7FE
:1036D00051FE8DF815408DF81300B3E70C4B1A78A6
:1036E00002B91C7019780A204A1C1A708DF81A1039
:1036F000FFF738FEB7E71B20FFF74EFE014668468E
:1037000001F005FE8DF81740BEE700BF261100202E
:1037100027110020014BDB68184700BFB05820007C
:10372000014B5B69184700BF84582000014B9B691F
:10373000184700BF84582000024BD86900B10047E9
:10374000704700BF8458200070B590F829400F4B97
:10375000042C214628BF04210124DB698C40054646
:103760009847012838BF0120013C444305D0FFF7AA
:10377000B1FAB0FBF4F303FB14042B46214605F128
:103780000800034ABDE87040FFF73AB884582000AB
:10379000053920002DE9F04106461B200F46FFF7B2
:1037A000FBFD494B05461A78484C22B901221A7094
:1037B000FFF790FA208023880BB90123238021880A
:1037C0000A204B1C2380FFF7CDFD414801F02BFB65
:1037D0000446002847D13F4801F070FB044600280A
:1037E00068D02946201D01F092FD002304F12C0031
:1037F000C4E90B30238501F013FB2146344801F066
:103800002FFB206B01F040FB072853DC324801F00E
:1038100055FB0546002841D0304801F04FFBA86019
:10382000C0B3FFF741FC686080B30920D5F8088079
:10383000FFF7A0FD08BB082388F808300D20C8E971
:103840000067FFF797FD01282946206B1BD101F087
:1038500014FB206B01F0E7FA854233D12046BDE826
:10386000F041FFF771BF2946201D01F053FD0028EC
:10387000C7D1204601F00FFBAAE70920FFF77AFD28
:1038800088F80800DAE701F0EBFAE2E7A9681348E4
:1038900001F028FB2946104801F024FB206B01F0C1
:1038A000F3FA38B921460A4801F0C7FA2146094817
:1038B00001F018FB39463046BDE8F04101230422EF
:1038C00001F088BEBDE8F08128110020EE0F002035
:1038D00068060020CC000020D8000020C000002096
:1038E00008B5054801F0DAFA044801F0D7FABDE856
:1038F0000840034801F0D2BAD8000020C0000020E0
:10390000CC00002013B5044668B1006B01F08BFABF
:10391000024640B12146054B0548DB68019302B0E1
:10392000BDE81040184702B010BD00BF8458200009
:10393000B13920002DE9F0470D4614468B68064644
:10394000D3E90078106B92F8289001F076FA686855
:10395000FFF7CCFBA968124801F0C4FA29461148C8
:1039600001F0C0FA206B01F05EFA60B1002320463E
:103970002385FFF7E9FE4B46324641463846BDE80F
:10398000F04701F027BE04F10800FEF743FF21468F
:10399000054801F052FA2146044801F0A3FAEAE78B
:1039A000C0000020D800002068060020CC000020C5
:1039B0002DE9F0410E461746044620B1006B01F098
:1039C00032FA054608B9BDE8F0810A21686801F0BD
:1039D00098FC80460A20FFF7CDFC804546D028465B
:1039E00001F059FAEDE794F8282000203A4484F8D1
:1039F00028202946224684F82900BDE8F041FFF737
:103A000099BF002384F8293094F82830DA19D2B20B
:103A100084F828200B7A93421CD82246294602209B
:103A2000EBE794F82930DA19D2B2052A84F8292074
:103A300007D9002294F8283084F82920013384F82B
:103A4000283094F828200B7A9A4203D3224629463C
:103A50000120D2E72046FFF777FE6868BDE8F04115
:103A600001F049BC224629463046C6E7A96800292C
:103A7000A9D0032EF6D801A353F826F0E739200089
:103A8000233A2000033A2000C7392000014B1B6A6B
:103A9000184700BF645720002DE9FF47804689463C
:103AA0001A203F49FFF76CFC01210B20FFF75AFC5D
:103AB0003C4B5B689847002870DBFFF75FFB3A4D93
:103AC00090F802A06C68FFF759FB0646FFF7B8FBB9
:103AD00001463046A047FFF767FCAF690646B84786
:103AE000044610B1012200240CE0A6B1AB6801939A
:103AF000FFF7A6FB019B9847024688B1022814BF36
:103B00000422012240460123494601F063FD20467C
:103B100004B0BDE8F087EB6998470028E2D1E5E7FB
:103B2000002E39D1FCF7B6FE0446FDF757F8C4F174
:103B3000FF2404F57F04F334FCF7ACFEC442FBD44D
:103B4000B847EE69E8B1FCF7A5FE0446FDF746F874
:103B5000C4F1FF2404F57F04EB34FCF79BFEC44260
:103B6000FBD4B0470446A0B103212B6903A89847B2
:103B7000032803D19DF80E3053450CD000240122B8
:103B8000C0E7B04704460028DDD16B69984700289C
:103B9000D9D00222B6E700220124B3E70522A2E72A
:103BA000EC0F0020A458200064572000044B82B082
:103BB00018B11B6A019302B018475B6AFAE700BFAD
:103BC0006457200007B5FFF7DDFA03281BD00F4B21
:103BD0009B689847002816DB1B20FFF7DDFB0C498C
:103BE00001F098FB58B1FFF703FC60B9FFF728FC20
:103BF000084BDB68019303B05DF804EB1847FFF74F
:103C0000D3FB0028EFD103B05DF804FBA4582000DB
:103C1000EC0F00206858200008B5024B1B6898473D
:103C2000023008BD5C58200038B50C4B9B689847A3
:103C3000041E02DA4FF0FF3038BDFFF7D9FA0378DF
:103C40000546002BF6D10220FFF77EFA0028F1D0BE
:103C50006878FFF78DFAA01CEEE700BF5C582000E3
:103C600070B50220FFF7F6FA10B94FF0FF3070BDC3
:103C7000FFF784FA002606700446FFF783FA6070A7
:103C8000FFF7DEFA0446FFF7C7FF20442A2812DCBC
:103C9000C0F12B00C4B2FFF7ABFA0546FFF772FA8A
:103CA00022463146284400F065FFFFF76BFA2044B6
:103CB00080B2FFF75DFA044B5B689847041ED4DBC3
:103CC000FFF772FAA01CD2E75C582000014B9B68FA
:103CD000184700BF3858200070B504460D46142020
:103CE0000121FFF73FFB034B29462046BDE870400A
:103CF0009B6818476858200070B503880446492B14
:103D00001FD04E2B3BD0002B68D1364E00F070FCFC
:103D10003146354801F0FEFA727805463178B0B187
:103D20003248FEF72BF80122314BAA21314800F02E
:103D300071F94FF47061304801F039F8492323805C
:103D400003E02D4801F045F838B9012070BD2B483B
:103D5000FEF714F82A46264BE7E7274801F030F82B
:103D6000FEF7B8FF4FF4F061B0FBF1F303FB110075
:103D7000411889B2224801F01AF84E23DFE72048A3
:103D800001F027F80028E0D0FEF7A4FF1D4B00F05B
:103D90000F0033F81050FEF79DFF00F00F000A28C7
:103DA000CCD8194E2846314600F054F8FFF78CFA6B
:103DB000FFF71EFA154D2B8803800220FFF7D8F974
:103DC0007378327829881248FDF7D8FF31460948C0
:103DD00000F062F92B8801332B80AFE700230380CA
:103DE0000320B3E7EC0F002026010020845E2000B2
:103DF000F400002034070020BC0700209E5E200055
:103E0000CC070020CA582000F00F00203B110020F2
:103E1000BF5E200037B504460D46FFF7B3F9022810
:103E200008D0FFF7AFF90146084803B0BDE83040BD
:103E3000FDF7A4BFFFF7DCF96278038821780095CD
:103E40000348FDF79BFF03B030BD00BFDF5E2000DD
:103E5000F65E2000F0B50C4B0A241E8800230B4AA6
:103E60009DB2AE4201D800200CE01D46013304FB98
:103E7000032737F80A7C8742F2D1012004FB052290
:103E800013890B80F0BD00BF28010020EA582000F4
:103E900038B50C484A780D460978FDF76FFF0A4897
:103EA00001F00CF8044620B9084800F029FF20462C
:103EB00038BD2946043001F02AFA2146044800F0B2
:103EC000DCFFF4E72C5F200000010020455F2000AC
:103ED000DC0700202DE9F74304460D46FFF752F9B1
:103EE000042809D0FFF74EF9052805D0414803B052
:103EF000BDE8F04300F004BFFFF77AF9066804203C
:103F0000FFF738FA00B210F15F0F6FDB1FFA86F986
:103F10004B466A78297800903748FDF72FFFFFF766
:103F200031F90528C84612D1FFF762F90746FFF7B5
:103F300029F9074417F8013C4BB1FEF7CBFE2346A5
:103F400000F07F012D4A04F13C00FEF759FC2946A0
:103F50002B4801F0B7FB074660B92A4800F0D0FEB5
:103F60002946294A2648FFF793FF29460746063087
:103F700001F0CDF9FCF754FCB86001F0B5FBB4F8E2
:103F800060304B4532D84FEA164604D1B4F85E3063
:103F9000304498422ADA294604F13800013601F00B
:103FA000B6F9A4F85E60A4F860906A782978434670
:103FB0001648FDF7E3FE002384F88430FEF78AFEFE
:103FC000234600F07F010D4A04F13C00FEF718FC87
:103FD000FEF780FE234600F07F010D4A803104F198
:103FE000640003B0BDE8F043FEF70ABC03B0BDE8CF
:103FF000F08300BF825F2000A15F20005D412000B0
:10400000DC070020D35F200000010020EE5F2000CD
:104010007D4220002DE9F04104460D463830194913
:1040200090461F46002601F072F94FF6FF732946AD
:10403000A4F85E302046144AA4F8606084F85C80DE
:10404000676384F88460FEF757FF691C0F4A89B2E2
:1040500004F11800FFF708F894F85C304BB92346D8
:104060004FF400610A4A04F16400BDE8F041FEF734
:10407000C7BB23468021074AA4F85E6004F13C00D8
:10408000F3E700BFC8582000F80000200C01002012
:10409000D94120005D412000F8B50D461D4F044672
:1040A0003946284601F036F9064630B1636B38468A
:1040B00000211B6898470020F8BD0520FFF7CAF8CB
:1040C00008B3FFF75BF80670FFF758F83B88A0F8D5
:1040D0000130FFF753F82B882946A0F803300E482B
:1040E00001F0F0FA30B1811D04F11800BDE8F8408C
:1040F00001F0DCB804F138052846084901F00AF956
:1041000020B92946F0E74FF0FF30D5E76FF0020005
:10411000D2E700BFEC0F0020DC070020C8582000C9
:1041200013B5B0F860300446ADF80430B0F85E3036
:10413000ADF80630FFF7C8F804210DEB0100FFF7DA
:10414000D3F8B4F860100448FDF718FE2046FEF7D7
:10415000E5FE02B010BD00BF1660200010B5044699
:104160000C4800F0CDFD2046FFF7DAFF94F85C30F4
:1041700073B1B4F8603004F13C000133A4F860304E
:104180004FF4F0512346BDE81040034AFEF738BB18
:1041900010BD00BF356020005D41200013B504460E
:1041A000B0F860308DF80410ADF80030B0F85E3033
:1041B000ADF80230FFF788F805216846FFF794F85C
:1041C000B4F860100348FDF7D9FD2046FEF7A6FEBF
:1041D00002B010BD5460200010B50446084800F03D
:1041E0008FFD20460121FFF7D9FF234604F164002B
:1041F0004FF4F061BDE81040024AFEF701BB00BF7A
:104200007C602000D941200070B500F138050446DB
:104210001549284601F07EF820B11448BDE87040E9
:1042200000F06EBDFFF750F802211148FFF75CF86F
:10423000022801D00F48F1E70120FFF70BF840B149
:10424000FEF79CFF01232946037004F1180001F0DA
:104250002DF8234604F164004FF41651BDE8704078
:10426000054AFEF7CDBA00BFC85820009E60200066
:10427000EC0F0020DF602000D941200010B504467B
:10428000094800F03DFD94F8843063B994F85C303F
:1042900023B1BDE81040054800F032BD2046BDE81E
:1042A0001040FFF7B1BF10BD106120002D6120004C
:1042B0002DE9F34104460F461546FEF763FF042837
:1042C00008D8FEF75FFF0146504802B0BDE8F04154
:1042D000FDF754BDFEF78CFFB0F80130ADF80030AB
:1042E0002B789A0715D46946494801F0EBF9064640
:1042F00060B9484800F004FD6946474A4448FFF762
:10430000C7FD39460646063001F001F8FCF788FA89
:10431000B060FEF76DFFB0F80330404901A8ADF87A
:10432000043000F0F7FF58B10520FEF70DFF2978A3
:10433000636B68461B688908984702B0BDE8F08146
:10434000334801A901F0BEF9064688B32B7806F17F
:10435000060843F002032B70FCF762FAB36804F11D
:104360001807C01AB0F5705F0DD994F85C309BB196
:104370002B4800F0C5FC23464FF4A061294A04F104
:104380003C00FEF73DFAFEF733FF2B784146037001
:10439000384600F08BFFD0E7234800F0B1FC3146EF
:1043A0001B4800F04AFD31461B4800F09BFDEAE740
:1043B00094F85C305BB11D4800F0A2FC23464FF43A
:1043C000A061184A04F13C00FEF71AFAB5E704F1BF
:1043D00038063046164900F09DFF18B1154800F028
:1043E0008FFCAAE72B789B0707D5134800F088FCC1
:1043F00001212046FFF7D2FE9FE7FEF7F9FE2B785A
:104400003146037004F11800C3E700BF5C6120006F
:10441000DC0700209061200000010020EC0F00204C
:10442000AD6120005D412000C9612000ED612000E8
:10443000C8582000266220004C6220002DE9F04F71
:1044400085B000AFBA6004464A7888464348097888
:10445000FDF794FCFEF796FE0228EA460AD8FEF71E
:1044600091FE01463E48FDF789FCD5461437BD460E
:10447000BDE8F08FFEF786FE461EC6F34703FB60DD
:1044800006F4FF73093303F47E73ADEB030D6D4641
:1044900006F4FF79A9443349484600F038FFFEF797
:1044A000A7FE06F4FF72411C284600F0EDFA2E46E6
:1044B000DFF8B4B0B1451FD194F85C30002BD4D1F3
:1044C00094F8843013B9294800F01AFC012694F8B6
:1044D0008410FB6881F001010B44D9B201FA06F89F
:1044E0004146284684F88460FEF7FEFE40451DD014
:1044F0001F4800F005FCB8E731461E4801F0E2F81D
:10450000034640B91C4800F0FBFB5A4631461948A7
:10451000FFF7BEFC0346981D41467B6000F0F7FEA6
:10452000FCF77EF97B6802369860C3E73046FEF7F9
:1045300091FE08B91148DCE7FEF720FEBB681B7846
:10454000037029786A780E48FDF718FC04F13801E9
:1045500004F1180000F0AAFE87E700BF7262200095
:1045600096622000EC0F002000010020DF62200096
:10457000FD622000DC070020C362200025632000CC
:104580005663200037B504460D46FEF7FBFD40B9E3
:10459000FEF7F8FD0146144803B0BDE83040FDF7D2
:1045A000EDBBFEF725FE0378183C8DF8043003F0D0
:1045B000FC033C2B08D10D4800F0A2FB0121204652
:1045C000FFF7ECFD03B030BD9DF8043029460433FD
:1045D0008DF80430DB07204601AA02D4FFF768FEFD
:1045E000F0E7FFF72BFFEDE788632000B3632000BF
:1045F00008B5FDF7B7FF0020FDF792FF0B4B1860E1
:104600000120FDF78DFF0A4B18600620FDF788FF9B
:10461000084B18600720FDF783FF074B0021186047
:10462000BDE808400548FEF713BA00BF9C0900200A
:10463000A0090020A8090020A409002014010020DE
:104640002DE9F347FDF78EFF0020FDF769FF1A4EB5
:104650001A4D30600120FDF763FF28600620FDF74A
:104660005FFF174C20600720FDF75AFF3268154E98
:104670002B682768144D34681449A7EB040A2C688A
:104680002860041B1248DFF84CE0D1F800900B6062
:104690000188DEF800804D1CCEF8002005803760D0
:1046A000A3EB0903CDE900A4A2EB08020A48FDF739
:1046B00065FB02B0BDE8F087900900209409002056
:1046C00098090020A8090020A4090020A0090020C2
:1046D000F20F00209C090020D863200010B5038849
:1046E00004462BB16D2B0AD000230380032010BD9C
:1046F0004FF4F061074800F05AFB6D232380054812
:1047000000F067FB0028F2D0024800F059FBFFF7E9
:1047100097FFF2E7AC09002053B94AB9002908BF56
:1047200000281CBF4FF0FF314FF0FF3000F076B98A
:10473000ADF1080C6DE904CE00F006F8DDF804E0F8
:10474000DDE9022304B070472DE9F047089E0D46CD
:1047500004468846002B4DD18A42944668D9B2FA65
:1047600082F252B101FA02F3C2F1200120FA01F102
:104770000CFA02FC41EA030894404FEA1C41B8FBE2
:10478000F1F71FFA8CFE01FB178807FB0EF0230CD4
:1047900043EA084398420AD91CEB030307F1FF35AB
:1047A00080F01E81984240F21B81023F63441B1A35
:1047B000B3FBF1F001FB103300FB0EFEA4B244EAA0
:1047C0000344A6450AD91CEB040400F1FF3380F032
:1047D0000981A64540F20681644402380021A4EB19
:1047E0000E0440EA07401EB10023D440C6E900434E
:1047F000BDE8F0878B4208D9002E00F0EE80002142
:10480000C6E900050846BDE8F087B3FA83F1002940
:104810004AD1AB4202D3824200F2FC80841A65EB9B
:10482000030301209846002EE2D0C6E90048DFE7E6
:1048300002B9FFDEB2FA82F2002A40F09180A1EBC9
:104840000C0001214FEA1C471FFA8CFEB0FBF7F366
:1048500007FB1300250C45EA00450EFB03F0A842B8
:1048600008D91CEB050503F1FF3802D2A84200F27B
:10487000CE8043462D1AB5FBF7F007FB10550EFB13
:1048800000FEA4B244EA0544A64508D91CEB040482
:1048900000F1FF3502D2A64500F2B6802846A4EB0F
:1048A0000E0440EA03409EE7C1F120078B4022FA44
:1048B00007FC4CEA030C25FA07FA4FEA1C49BAFB3D
:1048C000F9F820FA07F309FB18AA8D401FFA8CFEAD
:1048D0001D4300FA01F308FB0EF02C0C44EA0A44D5
:1048E000A04202FA01F20BD91CEB040408F1FF3AD2
:1048F00080F08880A04240F28580A8F102086444DC
:10490000241AB4FBF9F009FB104400FB0EFEADB213
:1049100045EA0444A64508D91CEB040400F1FF3520
:104920006CD2A6456AD90238644440EA0840A0FB2C
:104930000295A4EB0E04AC42C846AE4656D353D003
:10494000002E69D0B3EB080264EB0E0422FA01F3E7
:1049500004FA07F71F43CC40C6E90074002147E77B
:104960000CFA02FCC2F1200125FA01F34FEA1C47C0
:1049700020FA01F195400D43B3FBF7F107FB11332A
:104980001FFA8CFE280C40EA034001FB0EF3834221
:1049900004FA02F408D91CEB000001F1FF382FD211
:1049A00083422DD902396044C01AB0FBF7F307FBEC
:1049B0001300ADB245EA004503FB0EF0A84208D94A
:1049C0001CEB050503F1FF3816D2A84214D9023BAF
:1049D0006544281A43EA014138E73146304607E783
:1049E0002F46E4E61846F9E64B45A9D2B9EB020892
:1049F00065EB0C0E0138A3E74346EAE7284694E747
:104A00004146D1E7D0467BE76444023847E7023BA2
:104A100065442FE7084606E73146E9E6704700BFE0
:104A2000032A10B516D940EA010C1CF0030F044606
:104A30000B4622D119462046D1F800E0D0F800C03C
:104A40000433F44504F1040417D1043A032A204640
:104A50001946EFD8541EA2B100F1FF3C013901E024
:104A6000C3180CD01CF801EF11F8012FA4EB0C03B4
:104A70009645F5D0AEEB020010BD541EECE718468B
:104A800010BD104610BD00BF844641EA000313F07C
:104A9000030349D1403A23D30B6803604B6843605A
:104AA0008B688360CB68C3600B6903614B694361AA
:104AB0008B698361CB69C3610B6A03624B6A436292
:104AC0008B6A8362CB6AC3620B6B03634B6B43637A
:104AD0008B6B8363CB6BC36340304031403ADBD296
:104AE00030320BD30B6803604B6843608B68836084
:104AF000CB68C36010301031103AF3D20C3205D3BA
:104B000051F8043B40F8043B043AF9D2043208D08F
:104B1000D2071CBF11F8013B00F8013B01D30B8801
:104B200003806046704700BF082A13D38B07B1D0BB
:104B300010F00303AED0C3F10403D21ADB071CBF8D
:104B400011F8013B00F8013BA4D331F8023B20F8F7
:104B5000023B9FE7043AD9D3013A11F8013B00F830
:104B6000013BF9D20B7803704B7843708B788370DC
:104B700060467047830730B548D0541E002A3FD0A6
:104B80000346CAB201E0013C3AD303F8012B9D076A
:104B9000F9D1032C2DD9CDB245EA05250F2C45EAD4
:104BA000054536D9A4F1100222F00F0C03F1200EB6
:104BB000E6444FEA121C03F1100242E9045542E9AF
:104BC000025510327245F8D10CF1010214F00C0FAD
:104BD00003EB021204F00F0C13D0ACF1040323F02A
:104BE00003030433134442F8045B9342FBD10CF0FB
:104BF00003042CB1CAB21C4403F8012B9C42FBD124
:104C000030BD64461346002CF4D1F9E70346144640
:104C1000BFE71A46A446E0E7FEE708B5FBF736FB18
:104C2000F7B500240646254627463046FBF788FCA4
:104C30000197019BAB4215DB3046FBF789FCC5F5BC
:104C4000C8750197019B9D4211DC0134B4F5487F82
:104C500001D103B0F0BDB4F5C87FD4BF2546C4F57B
:104C60004875E2E700BF019B01330193E1E700BF14
:104C7000019B01330193E5E7704710B54FF0E02445
:104C8000236923F001032361FBF77EFD236943F0D1
:104C90000103236110BD70470020FBF76DBE0120AA
:104CA000FBF76ABE0020FCF72DB80120FCF72AB8FC
:104CB0000220FCF727B80320FCF724B810B50C46F7
:104CC000FCF770F92046BDE81040FCF727BC10B592
:104CD0000446C1B20020FBF767FF204610BD70B547
:104CE0000E460025441E631C02D014F8010F08B9BB
:104CF000284670BDB542FBD0FFF7E9FF0135F2E76A
:104D000038B505460024285D20B90A20FFF7DFFFEB
:104D1000204638BDFFF7DBFF0134F4E70020704781
:104D20000120704710B50446302200210E20FCF708
:104D300057F86CB1012C0CD142F210730011A0F2A3
:104D40008E5058432A2390FBF3F000F5C3402830DF
:104D500010BD4FF00040FBE7002070470120704776
:104D600010B50446302200210F20FCF739F85CB161
:104D7000012C03BF40F6F253584347F6F0734FF04F
:104D8000004008BF90FBF3F010BD084608B511467F
:104D90000AB1FFF7A4FF002008BD10B5041F54F8A6
:104DA000040F00B910BD0021FDF752FEF7E710B562
:104DB000044600F01BF82046BDE81040FDF76ABC31
:104DC00010B5044600F019F82046BDE81040FDF784
:104DD00061BCC068B0FA80F040097047837BDB0794
:104DE00001D5FDF72DBD7047FFF755BF10B54160E8
:104DF0000446FBF715FD206010BDD0E900321344D6
:104E00000360704710B50446FBF70AFD2368C3F141
:104E100001030344606898422CBF0020012010BDAC
:104E200000230360704700687047006820B10346A4
:104E300000680028FBD118467047036810B53BB1E5
:104E4000002499421A6806D11CB9026000221A6037
:104E500010BD2260FAE71C46002AF9D01346F0E79D
:104E600038B5FFF7EAFF00230B600546FFF7DDFFCB
:104E700008B9296038BD0160FCE738B5FFF7DDFFF0
:104E800003680B60016038BD0368002003B97047F8
:104E90001B680130FAE700B10068704710B504469E
:104EA000428800214068FFF765FE23886288A06879
:104EB0000021BDE810405A43FFF75CBE002310B547
:104EC0004188994201DC002009E04268D418D25C94
:104ED00032B9012222700288806803FB020010BDF3
:104EE0000133EEE7002330B5826844889C4201DC40
:104EF000FF2008E08A4207D14168CA5C0AB1013A42
:104F0000CA544268D05C30BD058801332A44EDE7BD
:104F100083688B4208D84288008800FB02308142B7
:104F20002CBF002001207047002070470023013A69
:104F30000160027143718371704710B542798379C2
:104F40000479D31A34EA030308D0036899544379E7
:104F50000279013313404371012010BD0020FCE7AA
:104F6000837942790179D21A0A421FBF0268D25C62
:104F700001330B401ABF837110464FF0FF3070476A
:104F8000831C002013F8022C023302B9704713F877
:104F9000032C1044F6E7072B2DE9F84306460F468D
:104FA00015461C4607DC1A4629463846FDF7D8FE4A
:104FB0003070BDE8F8834FEAE3087AB97B5D73553A
:104FC00001354545FADB14F00702F2D0002107EB6A
:104FD0000800FDF7C5FE06F80800EAE74FF00009F3
:104FE00007EB090008222946FDF7BAFE06F809007A
:104FF00009F10109C145F3DB14F00702D9D02946B4
:10500000E5E72DE9F743FEF7F3F804460220FEF743
:105010009BF820B90025284603B0BDE8F0836378EB
:10502000207800EB032080B2FDF7E8FF054600285A
:10503000F0D0FEF7DDF80746287B10F0070318BF15
:10504000012303EBD000FEF77FF80028E2D0002612
:10505000B146AC68023414F8023C002BDBD0192BAB
:1050600014F8018C07EBE60106F007020BD901A842
:105070004346FFF790FF14F8020C01A9FEF780F9F0
:1050800046440234E7E701A84346ADF80490FFF731
:1050900082FFBDF8041014F8020CFEF763F9EFE785
:1050A000072B2DE9F0410FDC1478C1F11001CB1A68
:1050B00004FA03F30178C3F307220A43417802702C
:1050C0000B434370BDE8F081DC10C9B9555C455411
:1050D0000131A142FADB13F00703F3D0125DC3F1F3
:1050E00008052A41C3F11003055D02FA03F3C3F377
:1050F00007222A43011902554A7813434B70E1E70E
:1051000005460026C1F1080E975D95F800C007FA24
:105110000EF7C7F307284CEA080C05F801CB95F801
:1051200000C001364CEA0707A6422F70ECDB13F0F3
:105130000703C7D0125DC3F1080631440A41D2B259
:10514000C3F11003015D02FA03F3C3F307220A431C
:10515000051902556A7813436B70B3E72DE9F743DD
:10516000057B044615F0070218BF012202EBD505A6
:10517000A81CFEF76FF8A8B1FEF700F8A38803702B
:10518000A3881B0A4370FDF7F9FF2A460025861CF9
:1051900000213046FFF7EEFCA468023414F8020C3C
:1051A00018B9012003B0BDE8F083192814F8017C78
:1051B00006EBE50805F007090AD9FEF7EDF83B46CE
:1051C000024649464046FFF76BFF3D440234E5E79F
:1051D000FEF7D0F88DF80400000A3B468DF8050074
:1051E00001AAEEE710B5FDF751FFFEF76DF8FDF7E8
:1051F000A3FE00F03CF8BDE810404FF4E1234FF46B
:10520000F0524FF480710220FDF75EBE7047F8B592
:105210000E46FDF7EDFF07880446FDF7B3FFBB0020
:105220000233834203D800250234AF4200DCF8BDCC
:1052300054F8041B30460A0C89B2FDF78FFE013585
:10524000F3E743695B6803B11847704713B5044639
:105250001A20FEF7A1F8014601A800F058F863698A
:105260001B6813B1204601A9984702B010BDFDF795
:10527000B7BE38B50D46FDF7C1FE044620B18560C6
:105280002846FDF7A7FE207338BDFDF7ADBD0369C5
:105290001B6803B11847704703695B6803B118477F
:1052A000704783695B6803B11847704710B50446BF
:1052B0001B20FEF765F82046BDE81040FDF72EBE26
:1052C0000EF00F000D2808BF00F00EB800982DE971
:1052D000F04F00F1240181F3098890E8F08F0EF07F
:1052E0000F000D2818BF7047EFF3098020E9F04F39
:1052F0000990BDE8F08F006800F1B6018230FEF73A
:1053000009B8036803EB4103B3F8820070470B88C8
:1053100003807047022208B5FFF782FBB0FA80F0E5
:10532000400908BD30B530B3037A022B2CD1C579C2
:105330000479437A2DB9002B4AD1012C48D120465B
:1053400015E054EA03001DD0032D2FD1032B2FD1DC
:10535000B4FA84F04009002309E0181E18BF0120A8
:10536000002CF8D1023B012B8CBF0023012301B19B
:105370000B6002B1106030BD023B012B8CBF0023DB
:105380000123DCE701201BE00378022B22D0037904
:1053900053B9437A13F0030318BF0123C07910F007
:1053A000030018BF0120E2E70023F7E7022DD4D065
:1053B000A3F1020CDCF1000040EB0C00002CCAD180
:1053C000022DCFD0032DC6D19C1E63426341CEE790
:1053D000002CD1D000200346C9E7002337B50B606D
:1053E0008B80437D0D46D9075CBF01232B70037E64
:1053F0000446012B0BD8C37D9A072CD0437E9B0714
:1054000029D0C28B838B9A4225D10123237569460B
:1054100001AA04F11000FFF785FF009B0BB10223E6
:10542000EB70019B0BB102236B70E37D03F0030370
:10543000022B03D0032B14BF00230823AB70637E21
:1054400003F00303022B03D0032B14BF0023082314
:105450002B7103B030BD0023D8E702280CBF022314
:1054600008230B448B4201D10120704713F8012D12
:10547000FF2AF7D00020704707B56946FFF7ADFF58
:105480009DF800309DF80100023303449DF80200AE
:1054900003449DF8030003449DF8040003449DF871
:1054A0000500184403B05DF804FB43788278DB0004
:1054B000120102F0100203F008031343027802F015
:1054C00007021343C278520102F02002134302790B
:1054D000920102F0400213430B704379427A03F0C9
:1054E000010343EA82138279520002F0020213435D
:1054F000C279920002F00C021343027A120102F008
:10550000300213434B70704737B504460D46694669
:10551000FFF763FF294604F11000FFF7C6FF9DF86F
:1055200000309DF80120012B09BFA37E0223AB7040
:105530000323022A08D1A18B5A1CE954A18BD2B2B1
:105540000233090ADBB2A9549DF802201344DBB2EE
:10555000991AC9B2B2B99DF80320022A08D1E18B89
:105560005A1CE954E18BD2B20233090ADBB2A954C6
:105570009DF8042008341344D8B2831ADBB22AB948
:1055800003B030BD013AA05C6854E1E7013AA15C88
:10559000E954F2E70278437802F007000870C2F39A
:1055A000C0004870C2F300108870C2F34010C2F30C
:1055B00080120A7103F001024A71C3F340028A713A
:1055C000C3F38102CA71C3F301129B09C8700A7246
:1055D0004B72704710B40446084611461A4614B17F
:1055E000234610BC184710BC704730B591B0FDF78A
:1055F000FFFD0446FDF7C6FD6A4601462046FDF75D
:105600005BFF044620B94FF0FF34204611B030BD97
:10561000FDF79AFD0028F6D014209DF81010FDF734
:10562000A1FE9DF81730ABB1BDF81C50FDF73EFF51
:10563000854205D04FF6FF73BDF81C209A42E2D197
:1056400069469DF81700FFF708FF18B969461B2047
:10565000FDF796FE02A91A20FDF792FE13209DF891
:105660001210FDF77FFE9DF8153053B99DF81A1002
:105670000A20FDF777FE9DF81A100E20FDF772FE46
:10568000C3E74FF6FF71F3E70020FDF7ABBF012042
:10569000FDF7A8BF00207047FEF7F8B970B50446C3
:1056A0000D4602B970BDD2E90060FDF735FD29460F
:1056B0002046FEF7F1F90028F4D03246F1E7FEF774
:1056C000EBB9704738B50D46FFF7ADFB044608B996
:1056D000204638BD2946201DFFF71CFE0028F7D1C3
:1056E0002046FFF7D8FBF1E701207047DD5C200082
:1056F00061052000BD052000000000000100000041
:10570000010000000100000000C0004000410D4009
:105710000000000011000000170000000000000160
:10572000FFFFFFFF05000000020000000200000074
:105730000200000000D0004008410D4002000000BF
:10574000110000001700000002010200FFFFFFFF30
:1057500006000000785D20007C5D20008B5D20004D
:105760008F5D20003D172000A50F20001D15200093
:10577000BD4C200009112000E9142000350F200045
:105780004D0F20005D0F2000051220009D1320000A
:10579000B512200021162000D910200007000000BB
:1057A000FF00000005000000ED0000000300000005
:1057B000D500000001000000C5000000000000004E
:1057C000B6000000FFFFFFFFB0000000FDFFFFFF7D
:1057D000A1000000FBFFFFFF91000000F9FFFFFFA9
:1057E00088000000F7FFFFFF72000000F5FFFFFFD9
:1057F00062000000F3FFFFFF58000000F1FFFFFF11
:1058000042000000E8FFFFFF00000000B65D20003E
:10581000254D20001D4D2000214D2000CA5D200097
:10582000614D2000594D20005D4D200003502000A7
:105830005D512000814F20005E5E2000E551200078
:10584000B52D20000F5220000D5220004D52200097
:10585000435220003D302000A352200089562000F2
:105860008F562000EB5520006F5E2000E1382000AD
:105870009537200015372000213720002D372000D4
:1058800039372000745E200099562000BF56200052
:105890009D562000C53B20008D3A2000AD3B2000E6
:1058A00095562000193C2000613C2000293C200036
:1058B0007C5E2000C3562000D93C2000CD3C200057
:1058C000E40000200000000000000B000C000D00B0
:1058D0000E000F001000110012001300140015003C
:1058E00016001700180019001A00010000124B00E2
:1058F00018D6F79C020000124B0014B5D9760300AD
:1059000000124B0018D6F384040000124B0018D686
:10591000F3EE050000124B0018D6F79206000012B5
:105920004B0018D6F39A070000124B0014B5DE2185
:10593000080000124B0018D6F2A1090000124B001B
:1059400014B5D8B50A0000124B0018D6F21E0B0091
:1059500000124B0014B5D95F0C0000124B0018D692
:10596000F2330D0000124B0014B5DE0C0E000012D5
:105970004B0018D6F20E0F0000124B0014B5D94997
:10598000100000124B0018D6F3DC110000124B007F
:1059900014B5D923120000124B0018D6F38B130054
:1059A00000124B0018D6F3C2140000124B0018D698
:1059B000F3B7150000124B0014B5DEE41600001218
:1059C0004B0018D6F388170000124B0018D6F79A30
:1059D000180000124B0018D6F7E7190000124B0010
:1059E00018D6F2851A0000124B0018D6F2271B00B9
:1059F00000124B0018D6F2641C0000124B0018D69F
:105A0000F3D31D0000124B0018D6F38D1E000012B8
:105A10004B0018D6F7E11F0000124B0014B5DEAFA3
:105A2000200000124B0018D6F291210000124B000A
:105A300018D6F2D7220000124B0018D6F3A3230089
:105A400000124B0018D6F2D9240000124B0014B5F6
:105A5000D99F640000124B00194015DB650000124D
:105A60004B001940153D660000124B001940165BB3
:105A7000670000124B00194014C3680000124B006D
:105A80001940158C690000124B00194015F36A008B
:105A900000124B001940161B6B0000124B001940FE
:105AA00014976C0000124B00194015B46D000012E1
:105AB0004B00194014DE6E0000124B0019401636E0
:105AC0006F0000124B00194014F2710000124B00DD
:105AD0001940155A720000124B0019401616730037
